{
  "contractName": "EHR",
  "abi": [
    {
      "inputs": [],
      "stateMutability": "nonpayable",
      "type": "constructor"
    },
    {
      "inputs": [],
      "name": "checkAdmin",
      "outputs": [
        {
          "internalType": "bool",
          "name": "",
          "type": "bool"
        }
      ],
      "stateMutability": "view",
      "type": "function",
      "constant": true
    },
    {
      "inputs": [
        {
          "internalType": "address",
          "name": "docId",
          "type": "address"
        },
        {
          "internalType": "string",
          "name": "docHash",
          "type": "string"
        }
      ],
      "name": "addDoctor",
      "outputs": [],
      "stateMutability": "nonpayable",
      "type": "function"
    },
    {
      "inputs": [
        {
          "internalType": "address",
          "name": "patientId",
          "type": "address"
        },
        {
          "internalType": "string",
          "name": "patientHash",
          "type": "string"
        }
      ],
      "name": "addPatient",
      "outputs": [],
      "stateMutability": "nonpayable",
      "type": "function"
    },
    {
      "inputs": [
        {
          "internalType": "address",
          "name": "d_id",
          "type": "address"
        }
      ],
      "name": "checkDoctor",
      "outputs": [
        {
          "internalType": "bool",
          "name": "",
          "type": "bool"
        }
      ],
      "stateMutability": "view",
      "type": "function",
      "constant": true
    },
    {
      "inputs": [
        {
          "internalType": "address",
          "name": "p_id",
          "type": "address"
        }
      ],
      "name": "checkPatient",
      "outputs": [
        {
          "internalType": "bool",
          "name": "",
          "type": "bool"
        }
      ],
      "stateMutability": "view",
      "type": "function",
      "constant": true
    },
    {
      "inputs": [
        {
          "internalType": "address",
          "name": "id",
          "type": "address"
        }
      ],
      "name": "doctorInformation",
      "outputs": [
        {
          "internalType": "string",
          "name": "",
          "type": "string"
        }
      ],
      "stateMutability": "view",
      "type": "function",
      "constant": true
    },
    {
      "inputs": [
        {
          "internalType": "address",
          "name": "id",
          "type": "address"
        }
      ],
      "name": "patientInformation",
      "outputs": [
        {
          "internalType": "string",
          "name": "",
          "type": "string"
        }
      ],
      "stateMutability": "view",
      "type": "function",
      "constant": true
    },
    {
      "inputs": [],
      "name": "allDoctorsList",
      "outputs": [
        {
          "components": [
            {
              "internalType": "address",
              "name": "doctor_id",
              "type": "address"
            },
            {
              "internalType": "string",
              "name": "doctor_ipfs_hash",
              "type": "string"
            }
          ],
          "internalType": "struct EHR.Doctor[]",
          "name": "",
          "type": "tuple[]"
        }
      ],
      "stateMutability": "view",
      "type": "function",
      "constant": true
    },
    {
      "inputs": [],
      "name": "allPatientsList",
      "outputs": [
        {
          "components": [
            {
              "internalType": "address",
              "name": "patient_id",
              "type": "address"
            },
            {
              "internalType": "string",
              "name": "patient_ipfs_hash",
              "type": "string"
            }
          ],
          "internalType": "struct EHR.Patient[]",
          "name": "",
          "type": "tuple[]"
        }
      ],
      "stateMutability": "view",
      "type": "function",
      "constant": true
    },
    {
      "inputs": [
        {
          "internalType": "address",
          "name": "patid",
          "type": "address"
        },
        {
          "internalType": "string",
          "name": "pathash",
          "type": "string"
        }
      ],
      "name": "addMedicalRecord",
      "outputs": [],
      "stateMutability": "nonpayable",
      "type": "function"
    },
    {
      "inputs": [
        {
          "internalType": "address",
          "name": "patid",
          "type": "address"
        }
      ],
      "name": "viewMedicalRecord",
      "outputs": [
        {
          "internalType": "string",
          "name": "",
          "type": "string"
        }
      ],
      "stateMutability": "view",
      "type": "function",
      "constant": true
    },
    {
      "inputs": [
        {
          "internalType": "address",
          "name": "docid",
          "type": "address"
        }
      ],
      "name": "deleteDoctor",
      "outputs": [],
      "stateMutability": "nonpayable",
      "type": "function"
    },
    {
      "inputs": [
        {
          "internalType": "address",
          "name": "patid",
          "type": "address"
        }
      ],
      "name": "deletePatient",
      "outputs": [],
      "stateMutability": "nonpayable",
      "type": "function"
    }
  ],
  "bytecode": "0x60806040523480156200001157600080fd5b506200002d3360006200003360201b6200113a1790919060201c565b620002cb565b620000458282620000e660201b60201c565b1562000088576040517f08c379a00000000000000000000000000000000000000000000000000000000081526004016200007f9062000211565b60405180910390fd5b60018260000160008373ffffffffffffffffffffffffffffffffffffffff1673ffffffffffffffffffffffffffffffffffffffff16815260200190815260200160002060006101000a81548160ff0219169083151502179055505050565b60008073ffffffffffffffffffffffffffffffffffffffff168273ffffffffffffffffffffffffffffffffffffffff160362000159576040517f08c379a00000000000000000000000000000000000000000000000000000000081526004016200015090620002a9565b60405180910390fd5b8260000160008373ffffffffffffffffffffffffffffffffffffffff1673ffffffffffffffffffffffffffffffffffffffff16815260200190815260200160002060009054906101000a900460ff16905092915050565b600082825260208201905092915050565b7f526f6c65733a206163636f756e7420616c72656164792068617320726f6c6500600082015250565b6000620001f9601f83620001b0565b91506200020682620001c1565b602082019050919050565b600060208201905081810360008301526200022c81620001ea565b9050919050565b7f526f6c65733a206163636f756e7420697320746865207a65726f20616464726560008201527f7373000000000000000000000000000000000000000000000000000000000000602082015250565b600062000291602283620001b0565b91506200029e8262000233565b604082019050919050565b60006020820190508181036000830152620002c48162000282565b9050919050565b6120d680620002db6000396000f3fe608060405234801561001057600080fd5b50600436106100cf5760003560e01c8063793de5f01161008c578063c71a157d11610066578063c71a157d14610222578063db66c06014610240578063e0be336a1461025c578063ec2395da1461028c576100cf565b8063793de5f0146101b85780637cf1e445146101e8578063ab15022614610204576100cf565b806302513ed2146100d457806309c8e700146100f05780633a9b131c146101205780633b1693b61461013c5780636052f825146101585780636529c77714610188575b600080fd5b6100ee60048036038101906100e991906114c9565b6102aa565b005b61010a600480360381019061010591906114c9565b6104af565b6040516101179190611586565b60405180910390f35b61013a600480360381019061013591906116dd565b610583565b005b610156600480360381019061015191906114c9565b610630565b005b610172600480360381019061016d91906114c9565b610835565b60405161017f9190611586565b60405180910390f35b6101a2600480360381019061019d91906114c9565b610909565b6040516101af9190611754565b60405180910390f35b6101d260048036038101906101cd91906114c9565b610926565b6040516101df9190611754565b60405180910390f35b61020260048036038101906101fd91906116dd565b610943565b005b61020c610a57565b6040516102199190611754565b60405180910390f35b61022a610a72565b60405161023791906118c7565b60405180910390f35b61025a600480360381019061025591906116dd565b610ce2565b005b610276600480360381019061027191906114c9565b610df6565b6040516102839190611586565b60405180910390f35b610294610eca565b6040516102a191906119e8565b60405180910390f35b6102b381610909565b6102f2576040517f08c379a00000000000000000000000000000000000000000000000000000000081526004016102e990611a56565b60405180910390fd5b60008060016007805490506103079190611aaf565b67ffffffffffffffff8111156103205761031f6115b2565b5b60405190808252806020026020018201604052801561034e5781602001602082028036833780820191505090505b50905060005b60078054905081101561047e578373ffffffffffffffffffffffffffffffffffffffff166007828154811061038c5761038b611ae3565b5b9060005260206000200160009054906101000a900473ffffffffffffffffffffffffffffffffffffffff1673ffffffffffffffffffffffffffffffffffffffff161461046b57600781815481106103e6576103e5611ae3565b5b9060005260206000200160009054906101000a900473ffffffffffffffffffffffffffffffffffffffff1682848061041d90611b12565b9550815181106104305761042f611ae3565b5b602002602001019073ffffffffffffffffffffffffffffffffffffffff16908173ffffffffffffffffffffffffffffffffffffffff16815250505b808061047690611b12565b915050610354565b506104938360026111e290919063ffffffff16565b80600790805190602001906104a9929190611350565b50505050565b6060600460008373ffffffffffffffffffffffffffffffffffffffff1673ffffffffffffffffffffffffffffffffffffffff16815260200190815260200160002060010180546104fe90611b89565b80601f016020809104026020016040519081016040528092919081815260200182805461052a90611b89565b80156105775780601f1061054c57610100808354040283529160200191610577565b820191906000526020600020905b81548152906001019060200180831161055a57829003601f168201915b50505050509050919050565b61059733600161128990919063ffffffff16565b6105d6576040517f08c379a00000000000000000000000000000000000000000000000000000000081526004016105cd90611c06565b60405180910390fd5b6000600560008473ffffffffffffffffffffffffffffffffffffffff1673ffffffffffffffffffffffffffffffffffffffff16815260200190815260200160002090508181600001908161062a9190611dd2565b50505050565b61063981610926565b610678576040517f08c379a000000000000000000000000000000000000000000000000000000000815260040161066f90611ef0565b60405180910390fd5b600080600160068054905061068d9190611aaf565b67ffffffffffffffff8111156106a6576106a56115b2565b5b6040519080825280602002602001820160405280156106d45781602001602082028036833780820191505090505b50905060005b600680549050811015610804578373ffffffffffffffffffffffffffffffffffffffff166006828154811061071257610711611ae3565b5b9060005260206000200160009054906101000a900473ffffffffffffffffffffffffffffffffffffffff1673ffffffffffffffffffffffffffffffffffffffff16146107f1576006818154811061076c5761076b611ae3565b5b9060005260206000200160009054906101000a900473ffffffffffffffffffffffffffffffffffffffff168284806107a390611b12565b9550815181106107b6576107b5611ae3565b5b602002602001019073ffffffffffffffffffffffffffffffffffffffff16908173ffffffffffffffffffffffffffffffffffffffff16815250505b80806107fc90611b12565b9150506106da565b506108198360016111e290919063ffffffff16565b806006908051906020019061082f929190611350565b50505050565b6060600560008373ffffffffffffffffffffffffffffffffffffffff1673ffffffffffffffffffffffffffffffffffffffff168152602001908152602001600020600001805461088490611b89565b80601f01602080910402602001604051908101604052809291908181526020018280546108b090611b89565b80156108fd5780601f106108d2576101008083540402835291602001916108fd565b820191906000526020600020905b8154815290600101906020018083116108e057829003601f168201915b50505050509050919050565b600061091f82600261128990919063ffffffff16565b9050919050565b600061093c82600161128990919063ffffffff16565b9050919050565b6000600360008473ffffffffffffffffffffffffffffffffffffffff1673ffffffffffffffffffffffffffffffffffffffff1681526020019081526020016000209050828160000160006101000a81548173ffffffffffffffffffffffffffffffffffffffff021916908373ffffffffffffffffffffffffffffffffffffffff160217905550818160010190816109da9190611dd2565b506109ef83600161113a90919063ffffffff16565b6006839080600181540180825580915050600190039060005260206000200160009091909190916101000a81548173ffffffffffffffffffffffffffffffffffffffff021916908373ffffffffffffffffffffffffffffffffffffffff160217905550505050565b6000610a6d33600061128990919063ffffffff16565b905090565b6060600060078054905067ffffffffffffffff811115610a9557610a946115b2565b5b604051908082528060200260200182016040528015610ace57816020015b610abb6113da565b815260200190600190039081610ab35790505b50905060005b600780549050811015610cda57610b3360078281548110610af857610af7611ae3565b5b9060005260206000200160009054906101000a900473ffffffffffffffffffffffffffffffffffffffff16600261128990919063ffffffff16565b15610cc7576004600060078381548110610b5057610b4f611ae3565b5b9060005260206000200160009054906101000a900473ffffffffffffffffffffffffffffffffffffffff1673ffffffffffffffffffffffffffffffffffffffff1673ffffffffffffffffffffffffffffffffffffffff1681526020019081526020016000206040518060400160405290816000820160009054906101000a900473ffffffffffffffffffffffffffffffffffffffff1673ffffffffffffffffffffffffffffffffffffffff1673ffffffffffffffffffffffffffffffffffffffff168152602001600182018054610c2690611b89565b80601f0160208091040260200160405190810160405280929190818152602001828054610c5290611b89565b8015610c9f5780601f10610c7457610100808354040283529160200191610c9f565b820191906000526020600020905b815481529060010190602001808311610c8257829003601f168201915b505050505081525050828281518110610cbb57610cba611ae3565b5b60200260200101819052505b8080610cd290611b12565b915050610ad4565b819250505090565b6000600460008473ffffffffffffffffffffffffffffffffffffffff1673ffffffffffffffffffffffffffffffffffffffff1681526020019081526020016000209050828160000160006101000a81548173ffffffffffffffffffffffffffffffffffffffff021916908373ffffffffffffffffffffffffffffffffffffffff16021790555081816001019081610d799190611dd2565b50610d8e83600261113a90919063ffffffff16565b6007839080600181540180825580915050600190039060005260206000200160009091909190916101000a81548173ffffffffffffffffffffffffffffffffffffffff021916908373ffffffffffffffffffffffffffffffffffffffff160217905550505050565b6060600360008373ffffffffffffffffffffffffffffffffffffffff1673ffffffffffffffffffffffffffffffffffffffff1681526020019081526020016000206001018054610e4590611b89565b80601f0160208091040260200160405190810160405280929190818152602001828054610e7190611b89565b8015610ebe5780601f10610e9357610100808354040283529160200191610ebe565b820191906000526020600020905b815481529060010190602001808311610ea157829003601f168201915b50505050509050919050565b6060600060068054905067ffffffffffffffff811115610eed57610eec6115b2565b5b604051908082528060200260200182016040528015610f2657816020015b610f1361140a565b815260200190600190039081610f0b5790505b50905060005b60068054905081101561113257610f8b60068281548110610f5057610f4f611ae3565b5b9060005260206000200160009054906101000a900473ffffffffffffffffffffffffffffffffffffffff16600161128990919063ffffffff16565b1561111f576003600060068381548110610fa857610fa7611ae3565b5b9060005260206000200160009054906101000a900473ffffffffffffffffffffffffffffffffffffffff1673ffffffffffffffffffffffffffffffffffffffff1673ffffffffffffffffffffffffffffffffffffffff1681526020019081526020016000206040518060400160405290816000820160009054906101000a900473ffffffffffffffffffffffffffffffffffffffff1673ffffffffffffffffffffffffffffffffffffffff1673ffffffffffffffffffffffffffffffffffffffff16815260200160018201805461107e90611b89565b80601f01602080910402602001604051908101604052809291908181526020018280546110aa90611b89565b80156110f75780601f106110cc576101008083540402835291602001916110f7565b820191906000526020600020905b8154815290600101906020018083116110da57829003601f168201915b50505050508152505082828151811061111357611112611ae3565b5b60200260200101819052505b808061112a90611b12565b915050610f2c565b819250505090565b6111448282611289565b15611184576040517f08c379a000000000000000000000000000000000000000000000000000000000815260040161117b90611f5c565b60405180910390fd5b60018260000160008373ffffffffffffffffffffffffffffffffffffffff1673ffffffffffffffffffffffffffffffffffffffff16815260200190815260200160002060006101000a81548160ff0219169083151502179055505050565b6111ec8282611289565b61122b576040517f08c379a000000000000000000000000000000000000000000000000000000000815260040161122290611fee565b60405180910390fd5b60008260000160008373ffffffffffffffffffffffffffffffffffffffff1673ffffffffffffffffffffffffffffffffffffffff16815260200190815260200160002060006101000a81548160ff0219169083151502179055505050565b60008073ffffffffffffffffffffffffffffffffffffffff168273ffffffffffffffffffffffffffffffffffffffff16036112f9576040517f08c379a00000000000000000000000000000000000000000000000000000000081526004016112f090612080565b60405180910390fd5b8260000160008373ffffffffffffffffffffffffffffffffffffffff1673ffffffffffffffffffffffffffffffffffffffff16815260200190815260200160002060009054906101000a900460ff16905092915050565b8280548282559060005260206000209081019282156113c9579160200282015b828111156113c85782518260006101000a81548173ffffffffffffffffffffffffffffffffffffffff021916908373ffffffffffffffffffffffffffffffffffffffff16021790555091602001919060010190611370565b5b5090506113d6919061143a565b5090565b6040518060400160405280600073ffffffffffffffffffffffffffffffffffffffff168152602001606081525090565b6040518060400160405280600073ffffffffffffffffffffffffffffffffffffffff168152602001606081525090565b5b8082111561145357600081600090555060010161143b565b5090565b6000604051905090565b600080fd5b600080fd5b600073ffffffffffffffffffffffffffffffffffffffff82169050919050565b60006114968261146b565b9050919050565b6114a68161148b565b81146114b157600080fd5b50565b6000813590506114c38161149d565b92915050565b6000602082840312156114df576114de611461565b5b60006114ed848285016114b4565b91505092915050565b600081519050919050565b600082825260208201905092915050565b60005b83811015611530578082015181840152602081019050611515565b60008484015250505050565b6000601f19601f8301169050919050565b6000611558826114f6565b6115628185611501565b9350611572818560208601611512565b61157b8161153c565b840191505092915050565b600060208201905081810360008301526115a0818461154d565b905092915050565b600080fd5b600080fd5b7f4e487b7100000000000000000000000000000000000000000000000000000000600052604160045260246000fd5b6115ea8261153c565b810181811067ffffffffffffffff82111715611609576116086115b2565b5b80604052505050565b600061161c611457565b905061162882826115e1565b919050565b600067ffffffffffffffff821115611648576116476115b2565b5b6116518261153c565b9050602081019050919050565b82818337600083830152505050565b600061168061167b8461162d565b611612565b90508281526020810184848401111561169c5761169b6115ad565b5b6116a784828561165e565b509392505050565b600082601f8301126116c4576116c36115a8565b5b81356116d484826020860161166d565b91505092915050565b600080604083850312156116f4576116f3611461565b5b6000611702858286016114b4565b925050602083013567ffffffffffffffff81111561172357611722611466565b5b61172f858286016116af565b9150509250929050565b60008115159050919050565b61174e81611739565b82525050565b60006020820190506117696000830184611745565b92915050565b600081519050919050565b600082825260208201905092915050565b6000819050602082019050919050565b6117a48161148b565b82525050565b600082825260208201905092915050565b60006117c6826114f6565b6117d081856117aa565b93506117e0818560208601611512565b6117e98161153c565b840191505092915050565b600060408301600083015161180c600086018261179b565b506020830151848203602086015261182482826117bb565b9150508091505092915050565b600061183d83836117f4565b905092915050565b6000602082019050919050565b600061185d8261176f565b611867818561177a565b9350836020820285016118798561178b565b8060005b858110156118b557848403895281516118968582611831565b94506118a183611845565b925060208a0199505060018101905061187d565b50829750879550505050505092915050565b600060208201905081810360008301526118e18184611852565b905092915050565b600081519050919050565b600082825260208201905092915050565b6000819050602082019050919050565b600060408301600083015161192d600086018261179b565b506020830151848203602086015261194582826117bb565b9150508091505092915050565b600061195e8383611915565b905092915050565b6000602082019050919050565b600061197e826118e9565b61198881856118f4565b93508360208202850161199a85611905565b8060005b858110156119d657848403895281516119b78582611952565b94506119c283611966565b925060208a0199505060018101905061199e565b50829750879550505050505092915050565b60006020820190508181036000830152611a028184611973565b905092915050565b7f496e76616c69642070617469656e742061646472657373000000000000000000600082015250565b6000611a40601783611501565b9150611a4b82611a0a565b602082019050919050565b60006020820190508181036000830152611a6f81611a33565b9050919050565b6000819050919050565b7f4e487b7100000000000000000000000000000000000000000000000000000000600052601160045260246000fd5b6000611aba82611a76565b9150611ac583611a76565b9250828203905081811115611add57611adc611a80565b5b92915050565b7f4e487b7100000000000000000000000000000000000000000000000000000000600052603260045260246000fd5b6000611b1d82611a76565b91507fffffffffffffffffffffffffffffffffffffffffffffffffffffffffffffffff8203611b4f57611b4e611a80565b5b600182019050919050565b7f4e487b7100000000000000000000000000000000000000000000000000000000600052602260045260246000fd5b60006002820490506001821680611ba157607f821691505b602082108103611bb457611bb3611b5a565b5b50919050565b7f4f6e6c7920646f63746f72732063616e20616464207265636f72647300000000600082015250565b6000611bf0601c83611501565b9150611bfb82611bba565b602082019050919050565b60006020820190508181036000830152611c1f81611be3565b9050919050565b60008190508160005260206000209050919050565b60006020601f8301049050919050565b600082821b905092915050565b600060088302611c887fffffffffffffffffffffffffffffffffffffffffffffffffffffffffffffffff82611c4b565b611c928683611c4b565b95508019841693508086168417925050509392505050565b6000819050919050565b6000611ccf611cca611cc584611a76565b611caa565b611a76565b9050919050565b6000819050919050565b611ce983611cb4565b611cfd611cf582611cd6565b848454611c58565b825550505050565b600090565b611d12611d05565b611d1d818484611ce0565b505050565b5b81811015611d4157611d36600082611d0a565b600181019050611d23565b5050565b601f821115611d8657611d5781611c26565b611d6084611c3b565b81016020851015611d6f578190505b611d83611d7b85611c3b565b830182611d22565b50505b505050565b600082821c905092915050565b6000611da960001984600802611d8b565b1980831691505092915050565b6000611dc28383611d98565b9150826002028217905092915050565b611ddb826114f6565b67ffffffffffffffff811115611df457611df36115b2565b5b611dfe8254611b89565b611e09828285611d45565b600060209050601f831160018114611e3c5760008415611e2a578287015190505b611e348582611db6565b865550611e9c565b601f198416611e4a86611c26565b60005b82811015611e7257848901518255600182019150602085019450602081019050611e4d565b86831015611e8f5784890151611e8b601f891682611d98565b8355505b6001600288020188555050505b505050505050565b7f496e76616c696420646f63746f72206164647265737300000000000000000000600082015250565b6000611eda601683611501565b9150611ee582611ea4565b602082019050919050565b60006020820190508181036000830152611f0981611ecd565b9050919050565b7f526f6c65733a206163636f756e7420616c72656164792068617320726f6c6500600082015250565b6000611f46601f83611501565b9150611f5182611f10565b602082019050919050565b60006020820190508181036000830152611f7581611f39565b9050919050565b7f526f6c65733a206163636f756e7420646f6573206e6f74206861766520726f6c60008201527f6500000000000000000000000000000000000000000000000000000000000000602082015250565b6000611fd8602183611501565b9150611fe382611f7c565b604082019050919050565b6000602082019050818103600083015261200781611fcb565b9050919050565b7f526f6c65733a206163636f756e7420697320746865207a65726f20616464726560008201527f7373000000000000000000000000000000000000000000000000000000000000602082015250565b600061206a602283611501565b91506120758261200e565b604082019050919050565b600060208201905081810360008301526120998161205d565b905091905056fea26469706673582212202bdac5e37db90bce4e4fedca44f8a3ea0d5e1352e45251bd4cc98b5c8c784cc964736f6c63430008110033",
  "immutableReferences": {},
  "source": "// SPDX-License-Identifier: MIT\npragma solidity >=0.4.22 <0.9.0;\nimport \"./Roles.sol\";\n\ncontract EHR {\n    using Roles for Roles.Role;\n\n    //using the roles library define the three roles\n    Roles.Role private admin;  \n    Roles.Role private doctor_role;\n    Roles.Role private patient_role;\n\n    struct Doctor {\n        address doctor_id;\n        string doctor_ipfs_hash;\n    }\n\n    struct Patient {\n        address patient_id;\n        string patient_ipfs_hash;\n    }\n\n    struct MedicalRecords {\n        string medical_ipfs_hash;\n    }\n\n    // for a given address, it will return the struct for doctor or patient (mapping)\n    //map address to their respective structs \n    mapping(address => Doctor) doctorMap;\n    mapping(address => Patient) patientMap;\n    mapping(address => MedicalRecords) recordMap;\n\n    address[] allDoctorList;\n    address[] allPatientList;\n\n    // whoever deploys the contracts is the admin\n    constructor() {\n        admin.add(msg.sender); //added admin\n    }\n\n    function checkAdmin() public view returns (bool) {\n        return admin.has(msg.sender); // this checks whether the given account has admin role or not\n    }\n\n    // for adding doctor we need id and ipfs hash\n    function addDoctor(address docId, string memory docHash) public {\n        Doctor storage doc = doctorMap[docId]; // creating a map for structure doctor\n        // this will add doctor details for the structure Doctor\n        doc.doctor_id = docId;\n        doc.doctor_ipfs_hash = docHash;\n        doctor_role.add(docId); // this will add doctor role\n        allDoctorList.push(docId); // push doc id to array all doc list\n    }\n\n    function addPatient(address patientId, string memory patientHash) public {\n        Patient storage pat = patientMap[patientId]; // creating a map for structure patient\n        // this will add patient details for the structure Patient\n        pat.patient_id = patientId;\n        pat.patient_ipfs_hash = patientHash;\n        patient_role.add(patientId); // this will add patient role\n        allPatientList.push(patientId); // push pat id to array all pat list\n    }\n\n    function checkDoctor(address d_id) public view returns (bool) {\n        return doctor_role.has(d_id);\n    }\n\n    function checkPatient(address p_id) public view returns (bool) {\n        return patient_role.has(p_id);\n    }\n\n    // retrive the doctor ipfs hash for that given doctor id\n    function doctorInformation(address id) public view returns (string memory) {\n        return doctorMap[id].doctor_ipfs_hash;\n    }\n\n    // retrive the patient ipfs hash for the given patient id\n    function patientInformation(address id) public view returns (string memory) {\n        return patientMap[id].patient_ipfs_hash;\n    }\n\n    // retriving an array of doctor struct, meaning retriveing the doctor id and ipfs hash (the struct contains the id and hash)\n    function allDoctorsList() public view returns (Doctor[] memory) {\n        Doctor[] memory allDoctors = new Doctor[](allDoctorList.length); //creating temporary array\n\n        uint256 i = 0;\n\n        for (i = 0; i < allDoctorList.length; i++) {\n            if (doctor_role.has(allDoctorList[i])) {\n                allDoctors[i] = doctorMap[allDoctorList[i]]; //filling alldocs with the addresses in alldocslist\n            }\n        }\n\n        return allDoctors;\n    }\n\n    // retriving an array of patient struct, meaning retriveing the patient id and ipfs hash\n    function allPatientsList() public view returns (Patient[] memory) {\n        Patient[] memory allPatients = new Patient[](allPatientList.length); //creating temporary array\n\n        uint256 i = 0;\n\n        for (i = 0; i < allPatientList.length; i++) {\n            if (patient_role.has(allPatientList[i])) {\n                allPatients[i] = patientMap[allPatientList[i]]; //filling allpat with the addresses in allpatlist\n            }\n        }\n\n        return allPatients;\n    }\n\n    // adding in the medical record struct which is mapped with patient id\n    function addMedicalRecord(address patid, string memory pathash) public {\n        require(doctor_role.has(msg.sender), \"Only doctors can add records\");\n\n        MedicalRecords storage medrecord = recordMap[patid];\n        medrecord.medical_ipfs_hash = pathash;\n    }\n\n    // viewing the medical record which is mapped with patient id, returns the medical record ipfs hash\n    function viewMedicalRecord(address patid) public view returns (string memory)\n    {\n        return recordMap[patid].medical_ipfs_hash;\n    }\n\n\n    //removing the doctor role \n    function deleteDoctor(address docid) public {\n        \n            require(checkDoctor(docid), \"Invalid doctor address\");\n            uint256 j = 0;\n            address[] memory temp = new address[](allDoctorList.length - 1);\n            for (uint256 i = 0; i < allDoctorList.length; i++) {\n                if (allDoctorList[i] != docid) {\n                    temp[j++] = allDoctorList[i];\n                }\n            }\n            doctor_role.remove(docid);\n            allDoctorList = temp;\n        }\n\n\n    //removing the patient role \n    function deletePatient(address patid) public {  \n\n        require(checkPatient(patid), \"Invalid patient address\");\n        uint256 j = 0;\n        address[] memory temp = new address[](allPatientList.length - 1);\n        for (uint256 i = 0; i < allPatientList.length; i++) {\n            if (allPatientList[i] != patid) {\n                temp[j++] = allPatientList[i];\n            }\n        }\n        patient_role.remove(patid);\n        allPatientList = temp;\n\n}\n}\n",
  "sourcePath": "C:\\Users\\Mahek\\EHR\\client\\contracts\\EHR.sol",
  "compiler": {
    "name": "solc",
    "version": "0.8.17+commit.8df45f5f.Emscripten.clang"
  },
  "schemaVersion": "3.4.11",
  "updatedAt": "2023-06-29T06:54:17.880Z",
  "networkType": "ethereum",
  "devdoc": {
    "kind": "dev",
    "methods": {},
    "version": 1
  },
  "userdoc": {
    "kind": "user",
    "methods": {},
    "version": 1
  }
}