{
  "contractName": "EHR",
  "abi": [
    {
      "inputs": [],
      "stateMutability": "nonpayable",
      "type": "constructor"
    },
    {
      "inputs": [],
      "name": "checkAdmin",
      "outputs": [
        {
          "internalType": "bool",
          "name": "",
          "type": "bool"
        }
      ],
      "stateMutability": "view",
      "type": "function",
      "constant": true
    },
    {
      "inputs": [
        {
          "internalType": "address",
          "name": "docId",
          "type": "address"
        },
        {
          "internalType": "string",
          "name": "docHash",
          "type": "string"
        }
      ],
      "name": "addDoctor",
      "outputs": [],
      "stateMutability": "nonpayable",
      "type": "function"
    },
    {
      "inputs": [
        {
          "internalType": "address",
          "name": "patientId",
          "type": "address"
        },
        {
          "internalType": "string",
          "name": "patientHash",
          "type": "string"
        }
      ],
      "name": "addPatient",
      "outputs": [],
      "stateMutability": "nonpayable",
      "type": "function"
    },
    {
      "inputs": [
        {
          "internalType": "address",
          "name": "d_id",
          "type": "address"
        }
      ],
      "name": "isDoctor",
      "outputs": [
        {
          "internalType": "bool",
          "name": "",
          "type": "bool"
        }
      ],
      "stateMutability": "view",
      "type": "function",
      "constant": true
    },
    {
      "inputs": [
        {
          "internalType": "address",
          "name": "p_id",
          "type": "address"
        }
      ],
      "name": "isPatient",
      "outputs": [
        {
          "internalType": "bool",
          "name": "",
          "type": "bool"
        }
      ],
      "stateMutability": "view",
      "type": "function",
      "constant": true
    },
    {
      "inputs": [
        {
          "internalType": "address",
          "name": "id",
          "type": "address"
        }
      ],
      "name": "getDocinfo",
      "outputs": [
        {
          "internalType": "string",
          "name": "",
          "type": "string"
        }
      ],
      "stateMutability": "view",
      "type": "function",
      "constant": true
    },
    {
      "inputs": [
        {
          "internalType": "address",
          "name": "id",
          "type": "address"
        }
      ],
      "name": "getPatinfo",
      "outputs": [
        {
          "internalType": "string",
          "name": "",
          "type": "string"
        }
      ],
      "stateMutability": "view",
      "type": "function",
      "constant": true
    },
    {
      "inputs": [],
      "name": "getAllDoc",
      "outputs": [
        {
          "components": [
            {
              "internalType": "address",
              "name": "doctor_id",
              "type": "address"
            },
            {
              "internalType": "string",
              "name": "doctor_ipfs_hash",
              "type": "string"
            }
          ],
          "internalType": "struct EHR.Doctor[]",
          "name": "",
          "type": "tuple[]"
        }
      ],
      "stateMutability": "view",
      "type": "function",
      "constant": true
    },
    {
      "inputs": [],
      "name": "getAllPat",
      "outputs": [
        {
          "components": [
            {
              "internalType": "address",
              "name": "patient_id",
              "type": "address"
            },
            {
              "internalType": "string",
              "name": "patient_ipfs_hash",
              "type": "string"
            }
          ],
          "internalType": "struct EHR.Patient[]",
          "name": "",
          "type": "tuple[]"
        }
      ],
      "stateMutability": "view",
      "type": "function",
      "constant": true
    },
    {
      "inputs": [
        {
          "internalType": "address",
          "name": "patid",
          "type": "address"
        },
        {
          "internalType": "string",
          "name": "pathash",
          "type": "string"
        }
      ],
      "name": "addMedicalRecord",
      "outputs": [],
      "stateMutability": "nonpayable",
      "type": "function"
    },
    {
      "inputs": [
        {
          "internalType": "address",
          "name": "patid",
          "type": "address"
        }
      ],
      "name": "viewMedicalRecord",
      "outputs": [
        {
          "internalType": "string",
          "name": "",
          "type": "string"
        }
      ],
      "stateMutability": "view",
      "type": "function",
      "constant": true
    }
  ],
  "bytecode": "0x60806040523480156200001157600080fd5b506200002d3360006200003360201b62000c381790919060201c565b620002cb565b620000458282620000e660201b60201c565b1562000088576040517f08c379a00000000000000000000000000000000000000000000000000000000081526004016200007f9062000211565b60405180910390fd5b60018260000160008373ffffffffffffffffffffffffffffffffffffffff1673ffffffffffffffffffffffffffffffffffffffff16815260200190815260200160002060006101000a81548160ff0219169083151502179055505050565b60008073ffffffffffffffffffffffffffffffffffffffff168273ffffffffffffffffffffffffffffffffffffffff160362000159576040517f08c379a00000000000000000000000000000000000000000000000000000000081526004016200015090620002a9565b60405180910390fd5b8260000160008373ffffffffffffffffffffffffffffffffffffffff1673ffffffffffffffffffffffffffffffffffffffff16815260200190815260200160002060009054906101000a900460ff16905092915050565b600082825260208201905092915050565b7f526f6c65733a206163636f756e7420616c72656164792068617320726f6c6500600082015250565b6000620001f9601f83620001b0565b91506200020682620001c1565b602082019050919050565b600060208201905081810360008301526200022c81620001ea565b9050919050565b7f526f6c65733a206163636f756e7420697320746865207a65726f20616464726560008201527f7373000000000000000000000000000000000000000000000000000000000000602082015250565b600062000291602283620001b0565b91506200029e8262000233565b604082019050919050565b60006020820190508181036000830152620002c48162000282565b9050919050565b61191c80620002db6000396000f3fe608060405234801561001057600080fd5b50600436106100a95760003560e01c806380603a211161007157806380603a21146101645780638f9c79ed1461018257806391b1a1db146101b2578063996440c6146101e2578063ab15022614610212578063db66c06014610230576100a9565b8063204e7fc2146100ae5780633a9b131c146100de5780634c880359146100fa5780636052f825146101185780637cf1e44514610148575b600080fd5b6100c860048036038101906100c39190610e79565b61024c565b6040516100d59190610f36565b60405180910390f35b6100f860048036038101906100f3919061108d565b610320565b005b6101026103cd565b60405161010f9190611241565b60405180910390f35b610132600480360381019061012d9190610e79565b6105f0565b60405161013f9190610f36565b60405180910390f35b610162600480360381019061015d919061108d565b6106c4565b005b61016c6107d8565b6040516101799190611362565b60405180910390f35b61019c60048036038101906101979190610e79565b6109fb565b6040516101a9919061139f565b60405180910390f35b6101cc60048036038101906101c79190610e79565b610a18565b6040516101d99190610f36565b60405180910390f35b6101fc60048036038101906101f79190610e79565b610aec565b604051610209919061139f565b60405180910390f35b61021a610b09565b604051610227919061139f565b60405180910390f35b61024a6004803603810190610245919061108d565b610b24565b005b6060600460008373ffffffffffffffffffffffffffffffffffffffff1673ffffffffffffffffffffffffffffffffffffffff168152602001908152602001600020600101805461029b906113e9565b80601f01602080910402602001604051908101604052809291908181526020018280546102c7906113e9565b80156103145780601f106102e957610100808354040283529160200191610314565b820191906000526020600020905b8154815290600101906020018083116102f757829003601f168201915b50505050509050919050565b610334336001610ce090919063ffffffff16565b610373576040517f08c379a000000000000000000000000000000000000000000000000000000000815260040161036a90611466565b60405180910390fd5b6000600560008473ffffffffffffffffffffffffffffffffffffffff1673ffffffffffffffffffffffffffffffffffffffff1681526020019081526020016000209050818160000190816103c7919061163c565b50505050565b6060600060068054905067ffffffffffffffff8111156103f0576103ef610f62565b5b60405190808252806020026020018201604052801561042957816020015b610416610da7565b81526020019060019003908161040e5790505b50905060005b6001600680549050610441919061173d565b81116105e857600360006006838154811061045f5761045e611771565b5b9060005260206000200160009054906101000a900473ffffffffffffffffffffffffffffffffffffffff1673ffffffffffffffffffffffffffffffffffffffff1673ffffffffffffffffffffffffffffffffffffffff1681526020019081526020016000206040518060400160405290816000820160009054906101000a900473ffffffffffffffffffffffffffffffffffffffff1673ffffffffffffffffffffffffffffffffffffffff1673ffffffffffffffffffffffffffffffffffffffff168152602001600182018054610535906113e9565b80601f0160208091040260200160405190810160405280929190818152602001828054610561906113e9565b80156105ae5780601f10610583576101008083540402835291602001916105ae565b820191906000526020600020905b81548152906001019060200180831161059157829003601f168201915b5050505050815250508282815181106105ca576105c9611771565b5b602002602001018190525080806105e0906117a0565b91505061042f565b819250505090565b6060600560008373ffffffffffffffffffffffffffffffffffffffff1673ffffffffffffffffffffffffffffffffffffffff168152602001908152602001600020600001805461063f906113e9565b80601f016020809104026020016040519081016040528092919081815260200182805461066b906113e9565b80156106b85780601f1061068d576101008083540402835291602001916106b8565b820191906000526020600020905b81548152906001019060200180831161069b57829003601f168201915b50505050509050919050565b6000600360008473ffffffffffffffffffffffffffffffffffffffff1673ffffffffffffffffffffffffffffffffffffffff1681526020019081526020016000209050828160000160006101000a81548173ffffffffffffffffffffffffffffffffffffffff021916908373ffffffffffffffffffffffffffffffffffffffff1602179055508181600101908161075b919061163c565b50610770836001610c3890919063ffffffff16565b6006839080600181540180825580915050600190039060005260206000200160009091909190916101000a81548173ffffffffffffffffffffffffffffffffffffffff021916908373ffffffffffffffffffffffffffffffffffffffff160217905550505050565b6060600060078054905067ffffffffffffffff8111156107fb576107fa610f62565b5b60405190808252806020026020018201604052801561083457816020015b610821610dd7565b8152602001906001900390816108195790505b50905060005b600160078054905061084c919061173d565b81116109f357600460006007838154811061086a57610869611771565b5b9060005260206000200160009054906101000a900473ffffffffffffffffffffffffffffffffffffffff1673ffffffffffffffffffffffffffffffffffffffff1673ffffffffffffffffffffffffffffffffffffffff1681526020019081526020016000206040518060400160405290816000820160009054906101000a900473ffffffffffffffffffffffffffffffffffffffff1673ffffffffffffffffffffffffffffffffffffffff1673ffffffffffffffffffffffffffffffffffffffff168152602001600182018054610940906113e9565b80601f016020809104026020016040519081016040528092919081815260200182805461096c906113e9565b80156109b95780601f1061098e576101008083540402835291602001916109b9565b820191906000526020600020905b81548152906001019060200180831161099c57829003601f168201915b5050505050815250508282815181106109d5576109d4611771565b5b602002602001018190525080806109eb906117a0565b91505061083a565b819250505090565b6000610a11826002610ce090919063ffffffff16565b9050919050565b6060600360008373ffffffffffffffffffffffffffffffffffffffff1673ffffffffffffffffffffffffffffffffffffffff1681526020019081526020016000206001018054610a67906113e9565b80601f0160208091040260200160405190810160405280929190818152602001828054610a93906113e9565b8015610ae05780601f10610ab557610100808354040283529160200191610ae0565b820191906000526020600020905b815481529060010190602001808311610ac357829003601f168201915b50505050509050919050565b6000610b02826001610ce090919063ffffffff16565b9050919050565b6000610b1f336000610ce090919063ffffffff16565b905090565b6000600460008473ffffffffffffffffffffffffffffffffffffffff1673ffffffffffffffffffffffffffffffffffffffff1681526020019081526020016000209050828160000160006101000a81548173ffffffffffffffffffffffffffffffffffffffff021916908373ffffffffffffffffffffffffffffffffffffffff16021790555081816001019081610bbb919061163c565b50610bd0836002610c3890919063ffffffff16565b6007839080600181540180825580915050600190039060005260206000200160009091909190916101000a81548173ffffffffffffffffffffffffffffffffffffffff021916908373ffffffffffffffffffffffffffffffffffffffff160217905550505050565b610c428282610ce0565b15610c82576040517f08c379a0000000000000000000000000000000000000000000000000000000008152600401610c7990611834565b60405180910390fd5b60018260000160008373ffffffffffffffffffffffffffffffffffffffff1673ffffffffffffffffffffffffffffffffffffffff16815260200190815260200160002060006101000a81548160ff0219169083151502179055505050565b60008073ffffffffffffffffffffffffffffffffffffffff168273ffffffffffffffffffffffffffffffffffffffff1603610d50576040517f08c379a0000000000000000000000000000000000000000000000000000000008152600401610d47906118c6565b60405180910390fd5b8260000160008373ffffffffffffffffffffffffffffffffffffffff1673ffffffffffffffffffffffffffffffffffffffff16815260200190815260200160002060009054906101000a900460ff16905092915050565b6040518060400160405280600073ffffffffffffffffffffffffffffffffffffffff168152602001606081525090565b6040518060400160405280600073ffffffffffffffffffffffffffffffffffffffff168152602001606081525090565b6000604051905090565b600080fd5b600080fd5b600073ffffffffffffffffffffffffffffffffffffffff82169050919050565b6000610e4682610e1b565b9050919050565b610e5681610e3b565b8114610e6157600080fd5b50565b600081359050610e7381610e4d565b92915050565b600060208284031215610e8f57610e8e610e11565b5b6000610e9d84828501610e64565b91505092915050565b600081519050919050565b600082825260208201905092915050565b60005b83811015610ee0578082015181840152602081019050610ec5565b60008484015250505050565b6000601f19601f8301169050919050565b6000610f0882610ea6565b610f128185610eb1565b9350610f22818560208601610ec2565b610f2b81610eec565b840191505092915050565b60006020820190508181036000830152610f508184610efd565b905092915050565b600080fd5b600080fd5b7f4e487b7100000000000000000000000000000000000000000000000000000000600052604160045260246000fd5b610f9a82610eec565b810181811067ffffffffffffffff82111715610fb957610fb8610f62565b5b80604052505050565b6000610fcc610e07565b9050610fd88282610f91565b919050565b600067ffffffffffffffff821115610ff857610ff7610f62565b5b61100182610eec565b9050602081019050919050565b82818337600083830152505050565b600061103061102b84610fdd565b610fc2565b90508281526020810184848401111561104c5761104b610f5d565b5b61105784828561100e565b509392505050565b600082601f83011261107457611073610f58565b5b813561108484826020860161101d565b91505092915050565b600080604083850312156110a4576110a3610e11565b5b60006110b285828601610e64565b925050602083013567ffffffffffffffff8111156110d3576110d2610e16565b5b6110df8582860161105f565b9150509250929050565b600081519050919050565b600082825260208201905092915050565b6000819050602082019050919050565b61111e81610e3b565b82525050565b600082825260208201905092915050565b600061114082610ea6565b61114a8185611124565b935061115a818560208601610ec2565b61116381610eec565b840191505092915050565b60006040830160008301516111866000860182611115565b506020830151848203602086015261119e8282611135565b9150508091505092915050565b60006111b7838361116e565b905092915050565b6000602082019050919050565b60006111d7826110e9565b6111e181856110f4565b9350836020820285016111f385611105565b8060005b8581101561122f578484038952815161121085826111ab565b945061121b836111bf565b925060208a019950506001810190506111f7565b50829750879550505050505092915050565b6000602082019050818103600083015261125b81846111cc565b905092915050565b600081519050919050565b600082825260208201905092915050565b6000819050602082019050919050565b60006040830160008301516112a76000860182611115565b50602083015184820360208601526112bf8282611135565b9150508091505092915050565b60006112d8838361128f565b905092915050565b6000602082019050919050565b60006112f882611263565b611302818561126e565b9350836020820285016113148561127f565b8060005b85811015611350578484038952815161133185826112cc565b945061133c836112e0565b925060208a01995050600181019050611318565b50829750879550505050505092915050565b6000602082019050818103600083015261137c81846112ed565b905092915050565b60008115159050919050565b61139981611384565b82525050565b60006020820190506113b46000830184611390565b92915050565b7f4e487b7100000000000000000000000000000000000000000000000000000000600052602260045260246000fd5b6000600282049050600182168061140157607f821691505b602082108103611414576114136113ba565b5b50919050565b7f4f6e6c7920646f63746f72732063616e20616464207265636f72647300000000600082015250565b6000611450601c83610eb1565b915061145b8261141a565b602082019050919050565b6000602082019050818103600083015261147f81611443565b9050919050565b60008190508160005260206000209050919050565b60006020601f8301049050919050565b600082821b905092915050565b6000600883026114e87fffffffffffffffffffffffffffffffffffffffffffffffffffffffffffffffff826114ab565b6114f286836114ab565b95508019841693508086168417925050509392505050565b6000819050919050565b6000819050919050565b600061153961153461152f8461150a565b611514565b61150a565b9050919050565b6000819050919050565b6115538361151e565b61156761155f82611540565b8484546114b8565b825550505050565b600090565b61157c61156f565b61158781848461154a565b505050565b5b818110156115ab576115a0600082611574565b60018101905061158d565b5050565b601f8211156115f0576115c181611486565b6115ca8461149b565b810160208510156115d9578190505b6115ed6115e58561149b565b83018261158c565b50505b505050565b600082821c905092915050565b6000611613600019846008026115f5565b1980831691505092915050565b600061162c8383611602565b9150826002028217905092915050565b61164582610ea6565b67ffffffffffffffff81111561165e5761165d610f62565b5b61166882546113e9565b6116738282856115af565b600060209050601f8311600181146116a65760008415611694578287015190505b61169e8582611620565b865550611706565b601f1984166116b486611486565b60005b828110156116dc578489015182556001820191506020850194506020810190506116b7565b868310156116f957848901516116f5601f891682611602565b8355505b6001600288020188555050505b505050505050565b7f4e487b7100000000000000000000000000000000000000000000000000000000600052601160045260246000fd5b60006117488261150a565b91506117538361150a565b925082820390508181111561176b5761176a61170e565b5b92915050565b7f4e487b7100000000000000000000000000000000000000000000000000000000600052603260045260246000fd5b60006117ab8261150a565b91507fffffffffffffffffffffffffffffffffffffffffffffffffffffffffffffffff82036117dd576117dc61170e565b5b600182019050919050565b7f526f6c65733a206163636f756e7420616c72656164792068617320726f6c6500600082015250565b600061181e601f83610eb1565b9150611829826117e8565b602082019050919050565b6000602082019050818103600083015261184d81611811565b9050919050565b7f526f6c65733a206163636f756e7420697320746865207a65726f20616464726560008201527f7373000000000000000000000000000000000000000000000000000000000000602082015250565b60006118b0602283610eb1565b91506118bb82611854565b604082019050919050565b600060208201905081810360008301526118df816118a3565b905091905056fea264697066735822122078a3f166b687e0c41edac9cf3283a1ebac0a446e6208b8be4f193fe1e378084764736f6c63430008110033",
  "immutableReferences": {},
  "source": "// SPDX-License-Identifier: MIT\npragma solidity >=0.4.22 <0.9.0;\nimport \"./Roles.sol\";\n\ncontract EHR {\n    using Roles for Roles.Role;\n\n    Roles.Role private admin;\n    Roles.Role private doctor_role;\n    Roles.Role private patient_role;\n\n    struct Doctor {\n        address doctor_id;\n        string doctor_ipfs_hash;\n    }\n\n    struct Patient {\n        address patient_id;\n        string patient_ipfs_hash;\n    }\n\n    struct MedicalRecords{\n\n        string medical_ipfs_hash;\n\n    }\n\n    // for a given address, it will return the struct for doctor or patient (mapping)\n    mapping(address => Doctor) doctormap;\n    mapping(address => Patient) patientmap;\n    mapping(address => MedicalRecords) recordmap;\n\n    address[] allDocList;\n    address[] allPatList;\n\n    // whoever deploys the contracts is the admin\n    constructor() {\n        admin.add(msg.sender); //added admin\n    }\n\n    function checkAdmin() public view returns (bool) {\n        return admin.has(msg.sender); // this checks whether the given account has admin role or not\n    }\n\n    // for adding doctor we need id and ipfs hash\n    function addDoctor(address docId, string memory docHash) public {\n        Doctor storage doc = doctormap[docId]; // creating a map for structure doctor\n        // this will add doctor details for the structure Doctor\n        doc.doctor_id = docId;\n        doc.doctor_ipfs_hash = docHash;\n\n        doctor_role.add(docId); // this will add doctor role\n        allDocList.push(docId); // push doc id to array all doc list\n    }\n\n    function addPatient(address patientId, string memory patientHash) public {\n        Patient storage pat = patientmap[patientId]; // creating a map for structure patient\n        // this will add patient details for the structure Patient\n        pat.patient_id = patientId;\n        pat.patient_ipfs_hash = patientHash;\n\n        patient_role.add(patientId); // this will add patient role\n\n        allPatList.push(patientId);// push pat id to array all pat list\n    }\n\n    function isDoctor(address d_id) public view returns (bool){\n\n        return doctor_role.has(d_id);\n\n    }\n\n     function isPatient(address p_id) public view returns (bool){\n\n        return patient_role.has(p_id);\n\n    }\n\n    function getDocinfo(address id) public view returns(string memory){\n\n        return doctormap[id].doctor_ipfs_hash;\n\n    }\n\n    function getPatinfo(address id) public view returns(string memory){\n\n        return patientmap[id].patient_ipfs_hash;\n\n    }\n\n    function getAllDoc() public view returns(Doctor[] memory){\n\n        Doctor[] memory allDocs = new Doctor[](allDocList.length); //creating temporary array \n\n        uint i=0;\n\n        for (i = 0; i <= allDocList.length-1; i++) {\n\n            allDocs[i]=doctormap[allDocList[i]]; //filling alldocs with the addresses in alldocslist\n            \n        }\n\n        return allDocs;\n    }\n\n     function getAllPat() public view returns(Patient[] memory){\n\n        Patient[] memory allPat = new Patient[](allPatList.length); //creating temporary array \n\n        uint i=0;\n\n        for (i = 0; i <= allPatList.length-1; i++) {\n\n            allPat[i]=patientmap[allPatList[i]]; //filling allpat with the addresses in allpatlist\n            \n        }\n\n        return allPat;\n    }\n\n    function addMedicalRecord(address patid, string memory pathash) public {\n\n        require(doctor_role.has(msg.sender), \"Only doctors can add records\");\n\n        MedicalRecords storage medrecord = recordmap[patid];\n        medrecord.medical_ipfs_hash = pathash;\n    } \n\n    function viewMedicalRecord(address patid) public view returns(string memory){\n\n        return recordmap[patid].medical_ipfs_hash;\n    }\n\n\n}\n",
  "sourcePath": "C:\\Users\\Mahek\\EHR\\client\\contracts\\EHR.sol",
  "compiler": {
    "name": "solc",
    "version": "0.8.17+commit.8df45f5f.Emscripten.clang"
  },
  "schemaVersion": "3.4.11",
  "updatedAt": "2023-02-25T16:07:53.114Z",
  "networkType": "ethereum",
  "devdoc": {
    "kind": "dev",
    "methods": {},
    "version": 1
  },
  "userdoc": {
    "kind": "user",
    "methods": {},
    "version": 1
  }
}