{
  "contractName": "EHR",
  "abi": [
    {
      "inputs": [],
      "stateMutability": "nonpayable",
      "type": "constructor"
    },
    {
      "inputs": [],
      "name": "checkAdmin",
      "outputs": [
        {
          "internalType": "bool",
          "name": "",
          "type": "bool"
        }
      ],
      "stateMutability": "view",
      "type": "function",
      "constant": true
    },
    {
      "inputs": [
        {
          "internalType": "address",
          "name": "docId",
          "type": "address"
        },
        {
          "internalType": "string",
          "name": "docHash",
          "type": "string"
        }
      ],
      "name": "addDoctor",
      "outputs": [],
      "stateMutability": "nonpayable",
      "type": "function"
    },
    {
      "inputs": [
        {
          "internalType": "address",
          "name": "patientId",
          "type": "address"
        },
        {
          "internalType": "string",
          "name": "patientHash",
          "type": "string"
        }
      ],
      "name": "addPatient",
      "outputs": [],
      "stateMutability": "nonpayable",
      "type": "function"
    },
    {
      "inputs": [
        {
          "internalType": "address",
          "name": "d_id",
          "type": "address"
        }
      ],
      "name": "isDoctor",
      "outputs": [
        {
          "internalType": "bool",
          "name": "",
          "type": "bool"
        }
      ],
      "stateMutability": "view",
      "type": "function",
      "constant": true
    },
    {
      "inputs": [
        {
          "internalType": "address",
          "name": "p_id",
          "type": "address"
        }
      ],
      "name": "isPatient",
      "outputs": [
        {
          "internalType": "bool",
          "name": "",
          "type": "bool"
        }
      ],
      "stateMutability": "view",
      "type": "function",
      "constant": true
    },
    {
      "inputs": [
        {
          "internalType": "address",
          "name": "id",
          "type": "address"
        }
      ],
      "name": "getDocinfo",
      "outputs": [
        {
          "internalType": "string",
          "name": "",
          "type": "string"
        }
      ],
      "stateMutability": "view",
      "type": "function",
      "constant": true
    },
    {
      "inputs": [
        {
          "internalType": "address",
          "name": "id",
          "type": "address"
        }
      ],
      "name": "getPatinfo",
      "outputs": [
        {
          "internalType": "string",
          "name": "",
          "type": "string"
        }
      ],
      "stateMutability": "view",
      "type": "function",
      "constant": true
    },
    {
      "inputs": [],
      "name": "getAllDoc",
      "outputs": [
        {
          "components": [
            {
              "internalType": "address",
              "name": "doctor_id",
              "type": "address"
            },
            {
              "internalType": "string",
              "name": "doctor_ipfs_hash",
              "type": "string"
            }
          ],
          "internalType": "struct EHR.Doctor[]",
          "name": "",
          "type": "tuple[]"
        }
      ],
      "stateMutability": "view",
      "type": "function",
      "constant": true
    },
    {
      "inputs": [],
      "name": "getAllPat",
      "outputs": [
        {
          "components": [
            {
              "internalType": "address",
              "name": "patient_id",
              "type": "address"
            },
            {
              "internalType": "string",
              "name": "patient_ipfs_hash",
              "type": "string"
            }
          ],
          "internalType": "struct EHR.Patient[]",
          "name": "",
          "type": "tuple[]"
        }
      ],
      "stateMutability": "view",
      "type": "function",
      "constant": true
    },
    {
      "inputs": [
        {
          "internalType": "address",
          "name": "patid",
          "type": "address"
        },
        {
          "internalType": "string",
          "name": "pathash",
          "type": "string"
        }
      ],
      "name": "addMedicalRecord",
      "outputs": [],
      "stateMutability": "nonpayable",
      "type": "function"
    },
    {
      "inputs": [
        {
          "internalType": "address",
          "name": "patid",
          "type": "address"
        }
      ],
      "name": "viewMedicalRecord",
      "outputs": [
        {
          "internalType": "string",
          "name": "",
          "type": "string"
        }
      ],
      "stateMutability": "view",
      "type": "function",
      "constant": true
    },
    {
      "inputs": [
        {
          "internalType": "address",
          "name": "docid",
          "type": "address"
        }
      ],
      "name": "deleteDoc",
      "outputs": [],
      "stateMutability": "nonpayable",
      "type": "function"
    },
    {
      "inputs": [
        {
          "internalType": "address",
          "name": "patid",
          "type": "address"
        }
      ],
      "name": "deletePat",
      "outputs": [],
      "stateMutability": "nonpayable",
      "type": "function"
    }
  ],
  "bytecode": "0x60806040523480156200001157600080fd5b506200002d3360006200003360201b620010981790919060201c565b620002cb565b620000458282620000e660201b60201c565b1562000088576040517f08c379a00000000000000000000000000000000000000000000000000000000081526004016200007f9062000211565b60405180910390fd5b60018260000160008373ffffffffffffffffffffffffffffffffffffffff1673ffffffffffffffffffffffffffffffffffffffff16815260200190815260200160002060006101000a81548160ff0219169083151502179055505050565b60008073ffffffffffffffffffffffffffffffffffffffff168273ffffffffffffffffffffffffffffffffffffffff160362000159576040517f08c379a00000000000000000000000000000000000000000000000000000000081526004016200015090620002a9565b60405180910390fd5b8260000160008373ffffffffffffffffffffffffffffffffffffffff1673ffffffffffffffffffffffffffffffffffffffff16815260200190815260200160002060009054906101000a900460ff16905092915050565b600082825260208201905092915050565b7f526f6c65733a206163636f756e7420616c72656164792068617320726f6c6500600082015250565b6000620001f9601f83620001b0565b91506200020682620001c1565b602082019050919050565b600060208201905081810360008301526200022c81620001ea565b9050919050565b7f526f6c65733a206163636f756e7420697320746865207a65726f20616464726560008201527f7373000000000000000000000000000000000000000000000000000000000000602082015250565b600062000291602283620001b0565b91506200029e8262000233565b604082019050919050565b60006020820190508181036000830152620002c48162000282565b9050919050565b611f9480620002db6000396000f3fe608060405234801561001057600080fd5b50600436106100cf5760003560e01c806380603a211161008c578063996440c611610066578063996440c614610224578063ab15022614610254578063c633868814610272578063db66c0601461028e576100cf565b806380603a21146101a65780638f9c79ed146101c457806391b1a1db146101f4576100cf565b806318a3f64e146100d4578063204e7fc2146100f05780633a9b131c146101205780634c8803591461013c5780636052f8251461015a5780637cf1e4451461018a575b600080fd5b6100ee60048036038101906100e99190611427565b6102aa565b005b61010a60048036038101906101059190611427565b61045e565b60405161011791906114e4565b60405180910390f35b61013a6004803603810190610135919061163b565b610532565b005b6101446105df565b60405161015191906117ef565b60405180910390f35b610174600480360381019061016f9190611427565b61084f565b60405161018191906114e4565b60405180910390f35b6101a4600480360381019061019f919061163b565b610923565b005b6101ae610a37565b6040516101bb9190611910565b60405180910390f35b6101de60048036038101906101d99190611427565b610ca7565b6040516101eb919061194d565b60405180910390f35b61020e60048036038101906102099190611427565b610cc4565b60405161021b91906114e4565b60405180910390f35b61023e60048036038101906102399190611427565b610d98565b60405161024b919061194d565b60405180910390f35b61025c610db5565b604051610269919061194d565b60405180910390f35b61028c60048036038101906102879190611427565b610dd0565b005b6102a860048036038101906102a3919061163b565b610f84565b005b6102be33600061114090919063ffffffff16565b6102fd576040517f08c379a00000000000000000000000000000000000000000000000000000000081526004016102f4906119b4565b60405180910390fd5b61031181600161120790919063ffffffff16565b60606000805b600680549050811015610441578373ffffffffffffffffffffffffffffffffffffffff166006828154811061034f5761034e6119d4565b5b9060005260206000200160009054906101000a900473ffffffffffffffffffffffffffffffffffffffff1673ffffffffffffffffffffffffffffffffffffffff161461042e57600681815481106103a9576103a86119d4565b5b9060005260206000200160009054906101000a900473ffffffffffffffffffffffffffffffffffffffff168383806103e090611a3c565b9450815181106103f3576103f26119d4565b5b602002602001019073ffffffffffffffffffffffffffffffffffffffff16908173ffffffffffffffffffffffffffffffffffffffff16815250505b808061043990611a3c565b915050610317565b5081600690805190602001906104589291906112ae565b50505050565b6060600460008373ffffffffffffffffffffffffffffffffffffffff1673ffffffffffffffffffffffffffffffffffffffff16815260200190815260200160002060010180546104ad90611ab3565b80601f01602080910402602001604051908101604052809291908181526020018280546104d990611ab3565b80156105265780601f106104fb57610100808354040283529160200191610526565b820191906000526020600020905b81548152906001019060200180831161050957829003601f168201915b50505050509050919050565b61054633600161114090919063ffffffff16565b610585576040517f08c379a000000000000000000000000000000000000000000000000000000000815260040161057c90611b30565b60405180910390fd5b6000600560008473ffffffffffffffffffffffffffffffffffffffff1673ffffffffffffffffffffffffffffffffffffffff1681526020019081526020016000209050818160000190816105d99190611cfc565b50505050565b6060600060068054905067ffffffffffffffff81111561060257610601611510565b5b60405190808252806020026020018201604052801561063b57816020015b610628611338565b8152602001906001900390816106205790505b50905060005b600680549050811015610847576106a060068281548110610665576106646119d4565b5b9060005260206000200160009054906101000a900473ffffffffffffffffffffffffffffffffffffffff16600161114090919063ffffffff16565b156108345760036000600683815481106106bd576106bc6119d4565b5b9060005260206000200160009054906101000a900473ffffffffffffffffffffffffffffffffffffffff1673ffffffffffffffffffffffffffffffffffffffff1673ffffffffffffffffffffffffffffffffffffffff1681526020019081526020016000206040518060400160405290816000820160009054906101000a900473ffffffffffffffffffffffffffffffffffffffff1673ffffffffffffffffffffffffffffffffffffffff1673ffffffffffffffffffffffffffffffffffffffff16815260200160018201805461079390611ab3565b80601f01602080910402602001604051908101604052809291908181526020018280546107bf90611ab3565b801561080c5780601f106107e15761010080835404028352916020019161080c565b820191906000526020600020905b8154815290600101906020018083116107ef57829003601f168201915b505050505081525050828281518110610828576108276119d4565b5b60200260200101819052505b808061083f90611a3c565b915050610641565b819250505090565b6060600560008373ffffffffffffffffffffffffffffffffffffffff1673ffffffffffffffffffffffffffffffffffffffff168152602001908152602001600020600001805461089e90611ab3565b80601f01602080910402602001604051908101604052809291908181526020018280546108ca90611ab3565b80156109175780601f106108ec57610100808354040283529160200191610917565b820191906000526020600020905b8154815290600101906020018083116108fa57829003601f168201915b50505050509050919050565b6000600360008473ffffffffffffffffffffffffffffffffffffffff1673ffffffffffffffffffffffffffffffffffffffff1681526020019081526020016000209050828160000160006101000a81548173ffffffffffffffffffffffffffffffffffffffff021916908373ffffffffffffffffffffffffffffffffffffffff160217905550818160010190816109ba9190611cfc565b506109cf83600161109890919063ffffffff16565b6006839080600181540180825580915050600190039060005260206000200160009091909190916101000a81548173ffffffffffffffffffffffffffffffffffffffff021916908373ffffffffffffffffffffffffffffffffffffffff160217905550505050565b6060600060078054905067ffffffffffffffff811115610a5a57610a59611510565b5b604051908082528060200260200182016040528015610a9357816020015b610a80611368565b815260200190600190039081610a785790505b50905060005b600780549050811015610c9f57610af860078281548110610abd57610abc6119d4565b5b9060005260206000200160009054906101000a900473ffffffffffffffffffffffffffffffffffffffff16600261114090919063ffffffff16565b15610c8c576004600060078381548110610b1557610b146119d4565b5b9060005260206000200160009054906101000a900473ffffffffffffffffffffffffffffffffffffffff1673ffffffffffffffffffffffffffffffffffffffff1673ffffffffffffffffffffffffffffffffffffffff1681526020019081526020016000206040518060400160405290816000820160009054906101000a900473ffffffffffffffffffffffffffffffffffffffff1673ffffffffffffffffffffffffffffffffffffffff1673ffffffffffffffffffffffffffffffffffffffff168152602001600182018054610beb90611ab3565b80601f0160208091040260200160405190810160405280929190818152602001828054610c1790611ab3565b8015610c645780601f10610c3957610100808354040283529160200191610c64565b820191906000526020600020905b815481529060010190602001808311610c4757829003601f168201915b505050505081525050828281518110610c8057610c7f6119d4565b5b60200260200101819052505b8080610c9790611a3c565b915050610a99565b819250505090565b6000610cbd82600261114090919063ffffffff16565b9050919050565b6060600360008373ffffffffffffffffffffffffffffffffffffffff1673ffffffffffffffffffffffffffffffffffffffff1681526020019081526020016000206001018054610d1390611ab3565b80601f0160208091040260200160405190810160405280929190818152602001828054610d3f90611ab3565b8015610d8c5780601f10610d6157610100808354040283529160200191610d8c565b820191906000526020600020905b815481529060010190602001808311610d6f57829003601f168201915b50505050509050919050565b6000610dae82600161114090919063ffffffff16565b9050919050565b6000610dcb33600061114090919063ffffffff16565b905090565b610de433600061114090919063ffffffff16565b610e23576040517f08c379a0000000000000000000000000000000000000000000000000000000008152600401610e1a906119b4565b60405180910390fd5b610e3781600261120790919063ffffffff16565b60606000805b600780549050811015610f67578373ffffffffffffffffffffffffffffffffffffffff1660078281548110610e7557610e746119d4565b5b9060005260206000200160009054906101000a900473ffffffffffffffffffffffffffffffffffffffff1673ffffffffffffffffffffffffffffffffffffffff1614610f545760068181548110610ecf57610ece6119d4565b5b9060005260206000200160009054906101000a900473ffffffffffffffffffffffffffffffffffffffff16838380610f0690611a3c565b945081518110610f1957610f186119d4565b5b602002602001019073ffffffffffffffffffffffffffffffffffffffff16908173ffffffffffffffffffffffffffffffffffffffff16815250505b8080610f5f90611a3c565b915050610e3d565b508160079080519060200190610f7e9291906112ae565b50505050565b6000600460008473ffffffffffffffffffffffffffffffffffffffff1673ffffffffffffffffffffffffffffffffffffffff1681526020019081526020016000209050828160000160006101000a81548173ffffffffffffffffffffffffffffffffffffffff021916908373ffffffffffffffffffffffffffffffffffffffff1602179055508181600101908161101b9190611cfc565b5061103083600261109890919063ffffffff16565b6007839080600181540180825580915050600190039060005260206000200160009091909190916101000a81548173ffffffffffffffffffffffffffffffffffffffff021916908373ffffffffffffffffffffffffffffffffffffffff160217905550505050565b6110a28282611140565b156110e2576040517f08c379a00000000000000000000000000000000000000000000000000000000081526004016110d990611e1a565b60405180910390fd5b60018260000160008373ffffffffffffffffffffffffffffffffffffffff1673ffffffffffffffffffffffffffffffffffffffff16815260200190815260200160002060006101000a81548160ff0219169083151502179055505050565b60008073ffffffffffffffffffffffffffffffffffffffff168273ffffffffffffffffffffffffffffffffffffffff16036111b0576040517f08c379a00000000000000000000000000000000000000000000000000000000081526004016111a790611eac565b60405180910390fd5b8260000160008373ffffffffffffffffffffffffffffffffffffffff1673ffffffffffffffffffffffffffffffffffffffff16815260200190815260200160002060009054906101000a900460ff16905092915050565b6112118282611140565b611250576040517f08c379a000000000000000000000000000000000000000000000000000000000815260040161124790611f3e565b60405180910390fd5b60008260000160008373ffffffffffffffffffffffffffffffffffffffff1673ffffffffffffffffffffffffffffffffffffffff16815260200190815260200160002060006101000a81548160ff0219169083151502179055505050565b828054828255906000526020600020908101928215611327579160200282015b828111156113265782518260006101000a81548173ffffffffffffffffffffffffffffffffffffffff021916908373ffffffffffffffffffffffffffffffffffffffff160217905550916020019190600101906112ce565b5b5090506113349190611398565b5090565b6040518060400160405280600073ffffffffffffffffffffffffffffffffffffffff168152602001606081525090565b6040518060400160405280600073ffffffffffffffffffffffffffffffffffffffff168152602001606081525090565b5b808211156113b1576000816000905550600101611399565b5090565b6000604051905090565b600080fd5b600080fd5b600073ffffffffffffffffffffffffffffffffffffffff82169050919050565b60006113f4826113c9565b9050919050565b611404816113e9565b811461140f57600080fd5b50565b600081359050611421816113fb565b92915050565b60006020828403121561143d5761143c6113bf565b5b600061144b84828501611412565b91505092915050565b600081519050919050565b600082825260208201905092915050565b60005b8381101561148e578082015181840152602081019050611473565b60008484015250505050565b6000601f19601f8301169050919050565b60006114b682611454565b6114c0818561145f565b93506114d0818560208601611470565b6114d98161149a565b840191505092915050565b600060208201905081810360008301526114fe81846114ab565b905092915050565b600080fd5b600080fd5b7f4e487b7100000000000000000000000000000000000000000000000000000000600052604160045260246000fd5b6115488261149a565b810181811067ffffffffffffffff8211171561156757611566611510565b5b80604052505050565b600061157a6113b5565b9050611586828261153f565b919050565b600067ffffffffffffffff8211156115a6576115a5611510565b5b6115af8261149a565b9050602081019050919050565b82818337600083830152505050565b60006115de6115d98461158b565b611570565b9050828152602081018484840111156115fa576115f961150b565b5b6116058482856115bc565b509392505050565b600082601f83011261162257611621611506565b5b81356116328482602086016115cb565b91505092915050565b60008060408385031215611652576116516113bf565b5b600061166085828601611412565b925050602083013567ffffffffffffffff811115611681576116806113c4565b5b61168d8582860161160d565b9150509250929050565b600081519050919050565b600082825260208201905092915050565b6000819050602082019050919050565b6116cc816113e9565b82525050565b600082825260208201905092915050565b60006116ee82611454565b6116f881856116d2565b9350611708818560208601611470565b6117118161149a565b840191505092915050565b600060408301600083015161173460008601826116c3565b506020830151848203602086015261174c82826116e3565b9150508091505092915050565b6000611765838361171c565b905092915050565b6000602082019050919050565b600061178582611697565b61178f81856116a2565b9350836020820285016117a1856116b3565b8060005b858110156117dd57848403895281516117be8582611759565b94506117c98361176d565b925060208a019950506001810190506117a5565b50829750879550505050505092915050565b60006020820190508181036000830152611809818461177a565b905092915050565b600081519050919050565b600082825260208201905092915050565b6000819050602082019050919050565b600060408301600083015161185560008601826116c3565b506020830151848203602086015261186d82826116e3565b9150508091505092915050565b6000611886838361183d565b905092915050565b6000602082019050919050565b60006118a682611811565b6118b0818561181c565b9350836020820285016118c28561182d565b8060005b858110156118fe57848403895281516118df858261187a565b94506118ea8361188e565b925060208a019950506001810190506118c6565b50829750879550505050505092915050565b6000602082019050818103600083015261192a818461189b565b905092915050565b60008115159050919050565b61194781611932565b82525050565b6000602082019050611962600083018461193e565b92915050565b7f6f6e6c7920666f722061646d696e000000000000000000000000000000000000600082015250565b600061199e600e8361145f565b91506119a982611968565b602082019050919050565b600060208201905081810360008301526119cd81611991565b9050919050565b7f4e487b7100000000000000000000000000000000000000000000000000000000600052603260045260246000fd5b7f4e487b7100000000000000000000000000000000000000000000000000000000600052601160045260246000fd5b6000819050919050565b6000611a4782611a32565b91507fffffffffffffffffffffffffffffffffffffffffffffffffffffffffffffffff8203611a7957611a78611a03565b5b600182019050919050565b7f4e487b7100000000000000000000000000000000000000000000000000000000600052602260045260246000fd5b60006002820490506001821680611acb57607f821691505b602082108103611ade57611add611a84565b5b50919050565b7f4f6e6c7920646f63746f72732063616e20616464207265636f72647300000000600082015250565b6000611b1a601c8361145f565b9150611b2582611ae4565b602082019050919050565b60006020820190508181036000830152611b4981611b0d565b9050919050565b60008190508160005260206000209050919050565b60006020601f8301049050919050565b600082821b905092915050565b600060088302611bb27fffffffffffffffffffffffffffffffffffffffffffffffffffffffffffffffff82611b75565b611bbc8683611b75565b95508019841693508086168417925050509392505050565b6000819050919050565b6000611bf9611bf4611bef84611a32565b611bd4565b611a32565b9050919050565b6000819050919050565b611c1383611bde565b611c27611c1f82611c00565b848454611b82565b825550505050565b600090565b611c3c611c2f565b611c47818484611c0a565b505050565b5b81811015611c6b57611c60600082611c34565b600181019050611c4d565b5050565b601f821115611cb057611c8181611b50565b611c8a84611b65565b81016020851015611c99578190505b611cad611ca585611b65565b830182611c4c565b50505b505050565b600082821c905092915050565b6000611cd360001984600802611cb5565b1980831691505092915050565b6000611cec8383611cc2565b9150826002028217905092915050565b611d0582611454565b67ffffffffffffffff811115611d1e57611d1d611510565b5b611d288254611ab3565b611d33828285611c6f565b600060209050601f831160018114611d665760008415611d54578287015190505b611d5e8582611ce0565b865550611dc6565b601f198416611d7486611b50565b60005b82811015611d9c57848901518255600182019150602085019450602081019050611d77565b86831015611db95784890151611db5601f891682611cc2565b8355505b6001600288020188555050505b505050505050565b7f526f6c65733a206163636f756e7420616c72656164792068617320726f6c6500600082015250565b6000611e04601f8361145f565b9150611e0f82611dce565b602082019050919050565b60006020820190508181036000830152611e3381611df7565b9050919050565b7f526f6c65733a206163636f756e7420697320746865207a65726f20616464726560008201527f7373000000000000000000000000000000000000000000000000000000000000602082015250565b6000611e9660228361145f565b9150611ea182611e3a565b604082019050919050565b60006020820190508181036000830152611ec581611e89565b9050919050565b7f526f6c65733a206163636f756e7420646f6573206e6f74206861766520726f6c60008201527f6500000000000000000000000000000000000000000000000000000000000000602082015250565b6000611f2860218361145f565b9150611f3382611ecc565b604082019050919050565b60006020820190508181036000830152611f5781611f1b565b905091905056fea26469706673582212202a9f1ddc0de9d1a5f57534d4d2231f636fc0ab2c44112e89636c45ec37b74e2964736f6c63430008110033",
  "immutableReferences": {},
  "source": "// SPDX-License-Identifier: MIT\npragma solidity >=0.4.22 <0.9.0;\nimport \"./Roles.sol\";\n\ncontract EHR {\n    using Roles for Roles.Role;\n\n    Roles.Role private admin;\n    Roles.Role private doctor_role;\n    Roles.Role private patient_role;\n\n    struct Doctor {\n        address doctor_id;\n        string doctor_ipfs_hash;\n    }\n\n    struct Patient {\n        address patient_id;\n        string patient_ipfs_hash;\n    }\n\n    struct MedicalRecords {\n        string medical_ipfs_hash;\n    }\n\n    // for a given address, it will return the struct for doctor or patient (mapping)\n    mapping(address => Doctor) doctormap;\n    mapping(address => Patient) patientmap;\n    mapping(address => MedicalRecords) recordmap;\n\n    address[] allDocList;\n    address[] allPatList;\n\n    // whoever deploys the contracts is the admin\n    constructor() {\n        admin.add(msg.sender); //added admin\n    }\n\n    function checkAdmin() public view returns (bool) {\n        return admin.has(msg.sender); // this checks whether the given account has admin role or not\n    }\n\n    // for adding doctor we need id and ipfs hash\n    function addDoctor(address docId, string memory docHash) public {\n        Doctor storage doc = doctormap[docId]; // creating a map for structure doctor\n        // this will add doctor details for the structure Doctor\n        doc.doctor_id = docId;\n        doc.doctor_ipfs_hash = docHash;\n\n        doctor_role.add(docId); // this will add doctor role\n        allDocList.push(docId); // push doc id to array all doc list\n    }\n\n    function addPatient(address patientId, string memory patientHash) public {\n        Patient storage pat = patientmap[patientId]; // creating a map for structure patient\n        // this will add patient details for the structure Patient\n        pat.patient_id = patientId;\n        pat.patient_ipfs_hash = patientHash;\n\n        patient_role.add(patientId); // this will add patient role\n\n        allPatList.push(patientId); // push pat id to array all pat list\n    }\n\n    function isDoctor(address d_id) public view returns (bool) {\n        return doctor_role.has(d_id);\n    }\n\n    function isPatient(address p_id) public view returns (bool) {\n        return patient_role.has(p_id);\n    }\n\n    function getDocinfo(address id) public view returns (string memory) {\n        return doctormap[id].doctor_ipfs_hash;\n    }\n\n    function getPatinfo(address id) public view returns (string memory) {\n        return patientmap[id].patient_ipfs_hash;\n    }\n\n    function getAllDoc() public view returns (Doctor[] memory) {\n        Doctor[] memory allDocs = new Doctor[](allDocList.length); //creating temporary array\n\n        uint256 i = 0;\n\n        for (i = 0; i < allDocList.length; i++) {\n            if (doctor_role.has(allDocList[i])) {\n                allDocs[i] = doctormap[allDocList[i]]; //filling alldocs with the addresses in alldocslist\n            }\n        }\n\n        return allDocs;\n    }\n\n    function getAllPat() public view returns (Patient[] memory) {\n        Patient[] memory allPat = new Patient[](allPatList.length); //creating temporary array\n\n        uint256 i = 0;\n\n        for (i = 0; i < allPatList.length; i++) {\n            if (patient_role.has(allPatList[i])) {\n                allPat[i] = patientmap[allPatList[i]]; //filling allpat with the addresses in allpatlist\n            }\n        }\n\n        return allPat;\n    }\n\n    function addMedicalRecord(address patid, string memory pathash) public {\n        require(doctor_role.has(msg.sender), \"Only doctors can add records\");\n\n        MedicalRecords storage medrecord = recordmap[patid];\n        medrecord.medical_ipfs_hash = pathash;\n    }\n\n    function viewMedicalRecord(address patid)\n        public\n        view\n        returns (string memory)\n    {\n        return recordmap[patid].medical_ipfs_hash;\n    }\n\n    function deleteDoc(address docid) public {\n        require(admin.has(msg.sender), \"only for admin\");\n        doctor_role.remove(docid);\n        address[] memory temp;\n\n        uint256 j = 0;\n\n        for (uint256 i = 0; i < allDocList.length; i++) {\n            if (allDocList[i] != docid) {\n                temp[j++] = allDocList[i];\n            }\n        }\n        allDocList = temp;\n    }\n\n    function deletePat(address patid) public {\n        require(admin.has(msg.sender), \"only for admin\");\n        patient_role.remove(patid);\n\n        address[] memory temp;\n\n        uint256 j = 0;\n\n        for (uint256 i = 0; i < allPatList.length; i++) {\n            if (allPatList[i] != patid) {\n                temp[j++] = allDocList[i];\n            }\n        }\n        allPatList = temp;\n    }\n}",
  "sourcePath": "C:\\Users\\Mahek\\EHR\\client\\contracts\\EHR.sol",
  "compiler": {
    "name": "solc",
    "version": "0.8.17+commit.8df45f5f.Emscripten.clang"
  },
  "schemaVersion": "3.4.11",
  "updatedAt": "2023-04-10T19:26:02.956Z",
  "networkType": "ethereum",
  "devdoc": {
    "kind": "dev",
    "methods": {},
    "version": 1
  },
  "userdoc": {
    "kind": "user",
    "methods": {},
    "version": 1
  }
}